{
  "contractName": "Lottery",
  "abi": [
    {
      "inputs": [],
      "stateMutability": "nonpayable",
      "type": "constructor"
    },
    {
      "inputs": [],
      "name": "manager",
      "outputs": [
        {
          "internalType": "address",
          "name": "",
          "type": "address"
        }
      ],
      "stateMutability": "view",
      "type": "function",
      "constant": true
    },
    {
      "inputs": [
        {
          "internalType": "address",
          "name": "",
          "type": "address"
        }
      ],
      "name": "pl",
      "outputs": [
        {
          "internalType": "bool",
          "name": "",
          "type": "bool"
        }
      ],
      "stateMutability": "view",
      "type": "function",
      "constant": true
    },
    {
      "inputs": [
        {
          "internalType": "uint256",
          "name": "",
          "type": "uint256"
        }
      ],
      "name": "players",
      "outputs": [
        {
          "internalType": "address",
          "name": "",
          "type": "address"
        }
      ],
      "stateMutability": "view",
      "type": "function",
      "constant": true
    },
    {
      "inputs": [],
      "name": "enter",
      "outputs": [],
      "stateMutability": "payable",
      "type": "function",
      "payable": true
    },
    {
      "inputs": [],
      "name": "pickWinner",
      "outputs": [],
      "stateMutability": "nonpayable",
      "type": "function"
    },
    {
      "inputs": [],
      "name": "getPlayers",
      "outputs": [
        {
          "internalType": "address[]",
          "name": "",
          "type": "address[]"
        }
      ],
      "stateMutability": "view",
      "type": "function",
      "constant": true
    }
  ],
  "bytecode": "0x608060405234801561001057600080fd5b50336000806101000a81548173ffffffffffffffffffffffffffffffffffffffff021916908373ffffffffffffffffffffffffffffffffffffffff160217905550610c65806100606000396000f3fe6080604052600436106100555760003560e01c8063481c6a751461005a5780635d495aea146100855780638481fe5e1461009c5780638b5b9ccc146100d9578063e97dcb6214610104578063f71d96cb1461010e575b600080fd5b34801561006657600080fd5b5061006f61014b565b60405161007c919061091a565b60405180910390f35b34801561009157600080fd5b5061009a61016f565b005b3480156100a857600080fd5b506100c360048036038101906100be91906106e0565b610353565b6040516100d09190610957565b60405180910390f35b3480156100e557600080fd5b506100ee610373565b6040516100fb9190610935565b60405180910390f35b61010c610401565b005b34801561011a57600080fd5b5061013560048036038101906101309190610709565b61059a565b604051610142919061091a565b60405180910390f35b60008054906101000a900473ffffffffffffffffffffffffffffffffffffffff1681565b60008054906101000a900473ffffffffffffffffffffffffffffffffffffffff1673ffffffffffffffffffffffffffffffffffffffff163373ffffffffffffffffffffffffffffffffffffffff16146101fd576040517f08c379a00000000000000000000000000000000000000000000000000000000081526004016101f490610992565b60405180910390fd5b600060018054905061020d6105d9565b6102179190610ae0565b9050600060018281548110610255577f4e487b7100000000000000000000000000000000000000000000000000000000600052603260045260246000fd5b9060005260206000200160009054906101000a900473ffffffffffffffffffffffffffffffffffffffff169050600067ffffffffffffffff8111156102c3577f4e487b7100000000000000000000000000000000000000000000000000000000600052604160045260246000fd5b6040519080825280602002602001820160405280156102f15781602001602082028036833780820191505090505b506001908051906020019061030792919061060f565b508073ffffffffffffffffffffffffffffffffffffffff166108fc479081150290604051600060405180830381858888f1935050505015801561034e573d6000803e3d6000fd5b505050565b60026020528060005260406000206000915054906101000a900460ff1681565b606060018054806020026020016040519081016040528092919081815260200182805480156103f757602002820191906000526020600020905b8160009054906101000a900473ffffffffffffffffffffffffffffffffffffffff1673ffffffffffffffffffffffffffffffffffffffff16815260200190600101908083116103ad575b5050505050905090565b60001515600260003373ffffffffffffffffffffffffffffffffffffffff1673ffffffffffffffffffffffffffffffffffffffff16815260200190815260200160002060009054906101000a900460ff16151514610494576040517f08c379a000000000000000000000000000000000000000000000000000000000815260040161048b906109b2565b60405180910390fd5b662386f26fc1000034116104dd576040517f08c379a00000000000000000000000000000000000000000000000000000000081526004016104d490610972565b60405180910390fd5b6001600260003373ffffffffffffffffffffffffffffffffffffffff1673ffffffffffffffffffffffffffffffffffffffff16815260200190815260200160002060006101000a81548160ff0219169083151502179055506001339080600181540180825580915050600190039060005260206000200160009091909190916101000a81548173ffffffffffffffffffffffffffffffffffffffff021916908373ffffffffffffffffffffffffffffffffffffffff160217905550565b600181815481106105aa57600080fd5b906000526020600020016000915054906101000a900473ffffffffffffffffffffffffffffffffffffffff1681565b6000444260016040516020016105f1939291906108e1565b6040516020818303038152906040528051906020012060001c905090565b828054828255906000526020600020908101928215610688579160200282015b828111156106875782518260006101000a81548173ffffffffffffffffffffffffffffffffffffffff021916908373ffffffffffffffffffffffffffffffffffffffff1602179055509160200191906001019061062f565b5b5090506106959190610699565b5090565b5b808211156106b257600081600090555060010161069a565b5090565b6000813590506106c581610c01565b92915050565b6000813590506106da81610c18565b92915050565b6000602082840312156106f257600080fd5b6000610700848285016106b6565b91505092915050565b60006020828403121561071b57600080fd5b6000610729848285016106cb565b91505092915050565b600061073e8383610762565b60208301905092915050565b60006107568383610780565b60208301905092915050565b61076b81610a74565b82525050565b61077a81610a74565b82525050565b61078981610a74565b82525050565b600061079a826109f7565b6107a48185610a27565b93506107af836109d2565b8060005b838110156107e05781516107c78882610732565b97506107d283610a0d565b9250506001810190506107b3565b5085935050505092915050565b60006107f882610a02565b6108028185610a38565b935061080d836109e2565b8060005b838110156108455761082282610b40565b61082c888261074a565b975061083783610a1a565b925050600181019050610811565b5085935050505092915050565b61085b81610a86565b82525050565b600061086e603283610a43565b915061087982610b60565b604082019050919050565b6000610891600383610a43565b915061089c82610baf565b602082019050919050565b60006108b4601983610a43565b91506108bf82610bd8565b602082019050919050565b6108db6108d682610ab2565b610ad6565b82525050565b60006108ed82866108ca565b6020820191506108fd82856108ca565b60208201915061090d82846107ed565b9150819050949350505050565b600060208201905061092f6000830184610771565b92915050565b6000602082019050818103600083015261094f818461078f565b905092915050565b600060208201905061096c6000830184610852565b92915050565b6000602082019050818103600083015261098b81610861565b9050919050565b600060208201905081810360008301526109ab81610884565b9050919050565b600060208201905081810360008301526109cb816108a7565b9050919050565b6000819050602082019050919050565b60008190508160005260206000209050919050565b600081519050919050565b600081549050919050565b6000602082019050919050565b6000600182019050919050565b600082825260208201905092915050565b600081905092915050565b600082825260208201905092915050565b600073ffffffffffffffffffffffffffffffffffffffff82169050919050565b6000610a7f82610a92565b9050919050565b60008115159050919050565b600073ffffffffffffffffffffffffffffffffffffffff82169050919050565b6000819050919050565b6000610acf610aca83610b53565b610a54565b9050919050565b6000819050919050565b6000610aeb82610ab2565b9150610af683610ab2565b925082610b0657610b05610b11565b5b828206905092915050565b7f4e487b7100000000000000000000000000000000000000000000000000000000600052601260045260246000fd5b6000610b4c8254610abc565b9050919050565b60008160001c9050919050565b7f43616e206e6f7420656e746572206c6f747465727920776974686f757420737560008201527f70706c79696e6720736f6d652065746865720000000000000000000000000000602082015250565b7f6e6f700000000000000000000000000000000000000000000000000000000000600082015250565b7f506c6179657220697320616c726561647920656e746572656400000000000000600082015250565b610c0a81610a74565b8114610c1557600080fd5b50565b610c2181610ab2565b8114610c2c57600080fd5b5056fea26469706673582212209ef812e151b5f060bdc09febb55fbd40f5606bf62275b0bf530ab2b9c2b6e2d664736f6c63430008010033",
  "immutableReferences": {},
  "source": "// SPDX-License-Identifier: MIT\r\npragma solidity ^0.8.1;\r\n\r\ncontract Lottery {\r\n    address public manager;\r\n    address[] public players;\r\n    mapping(address => bool) public pl;\r\n\r\n    modifier onlyManagers() {\r\n        require(msg.sender == manager, \"nop\");\r\n        _;\r\n    }\r\n\r\n    constructor() {\r\n        manager = msg.sender;\r\n    }\r\n\r\n    function enter() external payable {\r\n        require(pl[msg.sender] == false, \"Player is already entered\");\r\n        require(\r\n            msg.value > 0.01 ether,\r\n            \"Can not enter lottery without supplying some ether\"\r\n        );\r\n        pl[msg.sender] = true;\r\n        players.push(msg.sender);\r\n    }\r\n\r\n    function pickWinner() external onlyManagers {\r\n        uint256 index = _random() % players.length;\r\n        address player = players[index];\r\n        players = new address[](0);\r\n        payable(player).transfer(address(this).balance);\r\n    }\r\n\r\n    function getPlayers() public view returns (address[] memory) {\r\n        return players;\r\n    }\r\n\r\n    function _random() private view returns (uint256) {\r\n        return\r\n            uint256(\r\n                keccak256(\r\n                    abi.encodePacked(block.difficulty, block.timestamp, players)\r\n                )\r\n            );\r\n    }\r\n}\r\n",
  "sourcePath": "C:/Lgm local/poc_projects/contracts/Lottery.sol",
  "compiler": {
    "name": "solc",
    "version": "0.8.1+commit.df193b15.Emscripten.clang"
  },
  "schemaVersion": "3.3.4",
  "updatedAt": "2021-02-28T14:37:22.008Z",
  "networkType": "ethereum",
  "devdoc": {
    "kind": "dev",
    "methods": {},
    "version": 1
  },
  "userdoc": {
    "kind": "user",
    "methods": {},
    "version": 1
  }
}